:020000040800F2
:10000000580500204501000869060008DB040008C7
:1000100039060008B90100084B190008000000006B
:10002000000000000000000000000000AD0A000811
:10003000BD0100080000000095090008990B0008A8
:100040005F0100085F0100085F0100085F01000810
:100050005F0100085F0100085F0100085F01000800
:100060005F0100085F0100085F0100085F010008F0
:100070005F0100085F0100085F0100085F010008E0
:100080005F0100085F0100085F0100085F010008D0
:100090005F0100085F0100085F0100085F010008C0
:1000A0005F010008A90E00085F0100085F01000859
:1000B0005F0100085F0100085F0100085F010008A0
:1000C0005F0100085F0100085F0100085F01000890
:1000D0005F010008991200085D14000899160008D5
:1000E0005F0100085F0100085F0100085F01000870
:1000F0005F0100085F0100085F0100085F01000860
:100100005F0100085F0100085F0100085F0100084F
:100110005F0100085F0100085F0100085F0100083F
:100120005F0100085F0100085F0100085F0100082F
:10013000DFF80CD000F02EF800480047F91A00084C
:10014000580500200648804706480047FEE7FEE7BE
:10015000FEE7FEE7FEE7FEE7FEE7FEE7FEE7FEE777
:100160009D0B00083101000830B50B460146002008
:100170002022012409E021FA02F59D4205D303FA69
:1001800002F5491B04FA02F52844151EA2F10102EA
:10019000F1DC30BD064C074D06E0E06840F001039D
:1001A00094E8070098471034AC42F6D3FFF7C4FF39
:1001B000F82400081825000800BFFEE7704700007B
:1001C00030B587B005460C460121084600F0E4FB37
:1001D0000121042000F0F0FB0320ADF818000420FA
:1001E0008DF81B0006A9144800F0E8F8ADF810508F
:1001F000ADF80C400020ADF81200ADF80E0003A9D8
:100200004FF0804000F0F6FF00231A4603214FF024
:10021000804000F083FE684600F008FF0A20ADF839
:1002200008006946400700F0ABFE0121880700F096
:1002300069FE07B030BD00000008014030B587B04E
:1002400005460C460121042000F0A6FB01210820F0
:1002500000F0B2FBC020ADF8180004208DF81B00A0
:1002600006A9134800F0AAF8ADF81050ADF80C40FC
:100270000020ADF81200ADF80E0003A90D4800F003
:10028000B9FF00231A4603210A4800F047FE6846DA
:1002900000F0CCFE0A20ADF808006946054800F0E1
:1002A0006FFE0121034800F02DFE07B030BD0000B5
:1002B000000C01400008004008B50121082000F0B2
:1002C0007BFB0120ADF8000018208DF8030003200F
:1002D0008DF8020069460A4800F070F801210820F4
:1002E00000F06AFB0220ADF8000018208DF8030032
:1002F00003208DF802006946014800F05FF808BD50
:10030000000C014010B5FFF7D7FF00F001F810BD59
:1003100000B587B00121022000F03EFB41F61F40EE
:10032000ADF814000020ADF81000ADF81600ADF8DF
:1003300012008DF8180004A9154800F05BFF60203A
:10034000ADF800000120ADF802000020ADF8080073
:100350000F483C300088ADF8060069460C4800F0B4
:1003600077FE08210A4800F0C3FE094840300088A3
:10037000ADF806006946064800F0C4FE08210448AE
:1003800000F0FEFE0121024800F0BCFD07B000BDF8
:100390000004004008B54FF4E06000F09FF91D2014
:1003A0008DF8000000208DF8010001208DF802007A
:1003B0008DF80300684600F059F908BD2DE9F041B9
:1003C000024600250026002000230024002791F883
:1003D00003C00CF00F0591F803C00CF0100CBCF139
:1003E000000F03D091F802C04CEA050591F800C057
:1003F000BCF1000F31D0146800202BE04FF0010C4D
:100400000CFA00F3B1F800C00CEA03069E4220D1BA
:1004100083004FF00F0C0CFA03F7BC4305FA03FC02
:100420004CEA040491F803C0BCF1280F06D14FF048
:10043000010C0CFA00FCC2F814C00AE091F803C0E9
:10044000BCF1480F05D14FF0010C0CFA00FCC2F8CA
:1004500010C0401C0828D1D31460B1F800C0BCF112
:10046000FF0F34DD546800202EE000F1080C4FF03F
:10047000010808FA0CF3B1F800C00CEA03069E422A
:1004800021D183004FF00F0C0CFA03F7BC4305FA9F
:1004900003FC4CEA040491F803C0BCF1280F05D119
:1004A00000F1080C08FA0CF8C2F8148091F803C0A7
:1004B000BCF1480F07D100F1080C4FF0010808FA11
:1004C0000CF8C2F81080401C0828CED35460BDE858
:1004D000F081416170470161704700BFFEE7000095
:1004E00010B520210348FFF7F6FF20210148FFF750
:1004F000F0FF10BD000801402DE9F04105462C46F3
:1005000020211148FFF7E5FF002619E0274607F0F4
:100510008007802F04D180210B48FFF7DCFF03E028
:1005200080210948FFF7D5FF6006040E2021064808
:10053000FFF7D1FF20210448FFF7CBFF701CC6B2A4
:10054000082EE3DBBDE8F0810008014010B5044649
:1005500000F028F87820FFF7CFFFFFF7C1FF002059
:10056000FFF7CAFFFFF7BCFF2046FFF7C5FFFFF705
:10057000B7FF00F02BF810BD10B5044600F012F8DC
:100580007820FFF7B9FFFFF7ABFF4020FFF7B4FF7C
:10059000FFF7A6FF2046FFF7AFFFFFF7A1FF00F030
:1005A00015F810BD10B520210748FFF794FF8021F2
:1005B0000548FFF790FF80210348FFF78AFF2021BD
:1005C0000148FFF786FF10BD0008014010B520214B
:1005D0000548FFF780FF80210348FFF77AFF80215D
:1005E0000148FFF778FF10BD0008014008B5012160
:1005F000102000F0E1F94FF46040ADF80000102049
:100600008DF8030003208DF8020069460948FFF7C2
:10061000D5FE4FF400510748FFF75DFF4FF48041CE
:100620000448FFF756FF4FF400410248FFF751FF1F
:1006300008BD00000010014000BFFEE708B5012121
:10064000082000F0B9F910208DF803004FF4704035
:10065000ADF8000003208DF8020069460148FFF75D
:10066000ADFE08BD000C01407047000070B50021D0
:1006700000230F22C47804B3154C246804F4E0640A
:10068000C4F5E064210AC1F10403CA40447804FAC5
:1006900003F184781440214309010E4C0678A155DA
:1006A000047804F01F050124AC4005786D11AD00FD
:1006B00005F1E025C5F8004109E0047804F01F05C4
:1006C0000124AC40044D0678761145F8264070BDF3
:1006D0000CED00E000E400E080E100E002490143AD
:1006E000024A1160704700000000FA050CED00E0BE
:1006F00070B5002419E004F1B001C8B2002100F087
:1007000026F90021084600F022F90021102000F00F
:100710001EF9002505E00121002000F018F9681CF1
:10072000C5B2802DF7DB601CC4B2082CE3DB70BDC2
:1007300010B500F019F920214148FFF7CCFE8021C7
:100740003F48FFF7C8FE4FF400413D48FFF7C1FEA8
:10075000142001F017FA4FF400413948FFF7BBFEAF
:10076000322001F00FFA0021AE2000F0F0F8002155
:10077000084600F0ECF80021102000F0E8F8002115
:10078000402000F0E4F80021B02000F0E0F8002163
:10079000812000F0DCF80021FF2000F0D8F80021D3
:1007A000A12000F0D4F80021A62000F0D0F800210C
:1007B000A82000F0CCF800213F2000F0C8F800216C
:1007C000C82000F0C4F80021D32000F0C0F80021B8
:1007D000084600F0BCF80021D52000F0B8F8002150
:1007E000802000F0B4F80021D82000F0B0F80021FB
:1007F000052000F0ACF80021D92000F0A8F8002175
:10080000F12000F0A4F80021DA2000F0A0F8002187
:10081000122000F09CF80021DB2000F098F8002165
:10082000302000F094F800218D2000F090F8002195
:10083000142000F08CF80021AF2000F088F810BDE3
:100840000008014070B504460D4605F1B001C8B27C
:10085000002100F07CF8102141EA1410002100F082
:1008600076F804F00F00002100F071F870BD000070
:100870002DE9F04707460E4690469946002500248C
:10088000A8F12000C5B27F2F02DD0027B01CC6B240
:10089000B9F1100F24D131463846FFF7D3FF0024B9
:1008A00008E004EB0511194A505C012100F04FF8F3
:1008B000601CC4B2082CF4DB701CC1B23846FFF7D0
:1008C000C1FF002409E004EB051108310F4A505C18
:1008D000012100F03CF8601CC4B2082CF3DB12E0EC
:1008E00031463846FFF7AEFF00240AE005EB45012C
:1008F000074A02EB4101085D012100F028F8601C65
:10090000C4B2062CF2DBBDE8F0870000081F000827
:10091000E01C00082DE9F04104460F4615469846B4
:1009200000260FE0AA5D434639462046FFF7A0FFA8
:1009300004F10800C4B2782C02DD0024B81CC7B250
:10094000701CC6B2A85D0028ECD1BDE8F08170B57E
:1009500005460C461CB12846FFF70EFE02E028466D
:10096000FFF7F4FD70BD000008B50121042000F080
:1009700023F848F2A000ADF8000003208DF8020033
:1009800010208DF8030069460148FFF717FD08BDE8
:10099000000801407047000029B1064AD2690243AD
:1009A000044BDA6104E0034AD2698243014BDA6105
:1009B000704700000010024029B1064A92690243C4
:1009C000044B9A6104E0034A92698243014B9A61A5
:1009D000704700000010024030B5002100220024C2
:1009E00000232D4D6D6805F00C0121B1042905D0BF
:1009F000082923D105E0294D056022E0274D056037
:100A00001FE0254D6D6805F47012234D6D6805F4E7
:100A10008034022505EB92421CB9214D55430560F7
:100A20000BE01D4D6D6805F400351DB11C4D55439F
:100A3000056002E0194D5543056002E0174D056061
:100A400000BF00BF144D6D6805F0F0010909154D98
:100A50006B5C0568DD4045600F4D6D6805F4E06135
:100A6000090A104D6B5C4568DD4085600A4D6D6874
:100A700005F46051C90A0B4D6B5C4568DD40C560EB
:100A8000054D6D6805F44041890B074D6B5CC568E9
:100A9000B5FBF3F5056130BD0010024000127A008D
:100AA00000093D000000002010000020704710B534
:100AB00000F002F810BD00000CB50020019000907D
:100AC0003348006840F480303149086000BF304846
:100AD000006800F4003000900198401C01900098DC
:100AE00018B90198B0F5A06FF1D12948006800F459
:100AF000003010B10120009001E00020009000982B
:100B0000012843D12348006840F0100021490860C3
:100B10000846006820F0030008600846006840F0BE
:100B2000020008601A484068194948600846406851
:100B300048600846406840F4806048600846406865
:100B400020F47C1048600846406840F4E810486093
:100B50000846006840F08070086000BF0C480068DC
:100B600000F000700028F9D00948406820F0030028
:100B7000074948600846406840F00200486000BFEE
:100B80000348406800F00C000828F9D10CBD0000B3
:100B900000100240002002407047000010B51348CA
:100BA000006840F00100114908600846406810499B
:100BB00008400E494860084600680E4908400B4945
:100BC00008600846006820F48020086008464068F5
:100BD00020F4FE0048604FF41F008860FFF767FFB5
:100BE0004FF000600449086010BD00000010024092
:100BF0000000FFF8FFFFF6FE08ED00E0F0B50C4640
:100C0000154600220021068C4FF6FE773E400684F2
:100C1000028B018C4FF60C7632407E1C06EA0316DE
:100C20002E433243104EB0420ED0104EB0420BD085
:100C3000B0F1804F08D00E4EB04205D00D4EB042FC
:100C400002D00D4EB04206D14FF6FD76314044F051
:100C50000106314305E04FF6F576314044F00106D8
:100C6000314302830184F0BD002C01400034014077
:100C70000004004000080040000C0040F0B50C46A5
:100C80001546002200210026078C4FF6EF7C07EA6C
:100C90000C070784028B018C4FF6FF7707EA0416D6
:100CA00040F6FF473A404FF6FF7707EA03373A43EB
:100CB0004FF6FF7707EA05273A43114FB8420ED0A7
:100CC000104FB8420BD0B0F1804F08D00E4FB84251
:100CD00005D00E4FB84202D00D4FB84206D14FF6A4
:100CE000DF77394046F01007394305E04FF65F776C
:100CF000394044F01007394302830184F0BD0000FD
:100D0000002C014000340140000400400008004075
:100D1000000C0040F0B50C461546002200210026CC
:100D2000078C4FF6FF6C07EA0C070784828B018C57
:100D30004FF6FF7707EA04264FF60C773A404FF656
:100D4000FF7707EA03172F433A43114FB8420ED0FB
:100D5000104FB8420BD0B0F1804F08D00E4FB842C0
:100D600005D00E4FB84202D00D4FB84206D14FF613
:100D7000FF57394046F48077394305E04FF2FF577B
:100D8000394044F48077394382830184F0BD000008
:100D9000002C0140003401400004004000080040E5
:100DA000000C0040F0B50C4615460022002100263C
:100DB000078C4EF6FF7C07EA0C070784828B018CB8
:100DC0004FF6FF7707EA043640F6FF473A404FF602
:100DD000FF7707EA05273A434FF6FF7707EA03371D
:100DE0003A43114FB8420ED0104FB8420BD0B0F179
:100DF000804F08D00E4FB84205D00E4FB84202D0F7
:100E00000D4FB84206D14DF6FF77394046F4805772
:100E1000394305E047F6FF57394044F480573943DA
:100E200082830184F0BD0000002C014000340140A9
:100E30000004004000080040000C00407FB505465B
:100E40000C460121C802FFF7B7FDADF80850ADF818
:100E500004400020ADF80A00ADF806008DF80C0043
:100E600001A9104800F0C6F901210E4800F044F82D
:100E7000012241210B4800F0E2F80121094800F06D
:100E800041F819208DF8000000208DF801000320A2
:100E90008DF8020001208DF803006846FFF7E6FB9D
:100EA0007FBD0000002C014010B501210F4800F06B
:100EB00056F8A8B14FF4FA600D490880091D088062
:100EC0000221800600F01BF802210A4800F017F802
:100ED0000421080700F013F80421064800F00FF879
:100EE0000121024800F00BF810BD0000002C014069
:100EF0003C04004000080040CA4302827047CA43D5
:100F00000282704721B1028842F00102028004E0AF
:100F100002884FF6FE731A4002807047F0B50C4607
:100F200015461E460021002200230189028B038CF6
:100F30004FF6F877394021434FF6FC473A4040F2EC
:100F400001173A434FF6DD773B404FF6FF7707EA4C
:100F500006172F433B43018102830384F0BD30B564
:100F60000246002000230024158A05EA0103958922
:100F700005EA010413B10CB1012000E0002030BDEE
:100F800070B505460C46244885420ED0234885425C
:100F90000BD0B5F1804F08D02148854205D02148BB
:100FA000854202D02048854200D100E000BF208861
:100FB00050B92389A28861882846FFF71FFEE1887F
:100FC000284600F0EAF825E0208804280AD1238981
:100FD000A28861882846FFF751FEE188284600F084
:100FE000E5F817E0208808280AD12389A2886188BB
:100FF0002846FFF78FFEE188284600F0E4F809E074
:101000002389A28861882846FFF7CCFEE18828461C
:1010100000F0E2F870BD0000002C014000340140F7
:101020000004004000080040000C00400021018046
:101030004180012181800021C180018170471AB166
:1010400083890B43838102E083898B4383817047CB
:1010500070B5002400220023058C4FF6FF66354052
:101060000584028C8388848B4FF68F752C404FF655
:10107000FC752C400D882C434FF6FF552A400D89F6
:101080004FF6FF7606EA05252A434D8806EA052530
:101090002A43154DA84202D0144DA8421DD14FF24B
:1010A000FF752A404D894FF6FF7606EA05252A434B
:1010B0004FF6FF352A408D8806EA05252A434EF66D
:1010C000FF752B404DF6FF752B408D8906EA0515FF
:1010D0002B43CD8906EA05152B4383808483CD8875
:1010E0008587028470BD0000002C0140003401405F
:1010F0000A460021818B4FF6F77319401143818313
:101100007047000070B5002200230024058C4EF6C5
:10111000FF7635400584038C8488828B48F6FF7502
:101120002A404FF6FF452A400D884FF6FF7606EA23
:1011300005252A434DF6FF752B400D8906EA053536
:101140002B434D8806EA05352B430B4DA84202D0B0
:101150000A4DA84208D14BF6FF752C408D894FF6F9
:10116000FF7606EA85152C4384808283CD88A0F81B
:101170004050038470BD0000002C01400034014049
:101180000A460021818B4FF2FF7319404FF6FF731F
:1011900003EA0223194381837047028B4FF6F373EE
:1011A0001A400283028B0A4302837047028B4FF27C
:1011B000FF331A400283028B4FF6FF7303EA0123C9
:1011C0001A4302837047828B4FF6F3731A4082836F
:1011D000828B0A4382837047828B4FF2FF331A401F
:1011E0008283828B4FF6FF7303EA01231A438283C3
:1011F00070470000002202881D4B98420ED01D4B04
:1012000098420BD0B0F1804F08D01B4B984205D0CC
:101210001A4B984202D01A4B984204D14FF68F7362
:101220001A404B881A43174B984207D0164B9842E6
:1012300004D04FF6FF431A40CB881A4302808B88B4
:1012400083850B8803850A4B98420BD0094B984243
:1012500008D00E4B984205D00D4B984202D00D4B52
:10126000984201D10B7A03860123838270470000E4
:10127000002C014000340140000400400008004000
:10128000000C0040001000400014004000400140ED
:10129000004401400048014070B540F225516148CA
:1012A00000F092FA002819D040F225515D4800F074
:1012B00016FA5C4800F044FBC5B25B48007870B990
:1012C0002C2D0CD10120584908705848017800781D
:1012D000401C564A1070564840F82150A0E0524831
:1012E000007801280ED1122D0CD102204E49087031
:1012F0004E4801780078401C4C4A10704C4840F829
:1013000021508DE048480078022825D147480178CF
:101310000078401C454A1070454840F8215010465E
:1013200000780A2801DA5B2D7AD103203E49087043
:101330000120404908703D480078C01E3C4951F8E2
:1013400020003D49086039480078801E384951F82E
:1013500020003A49086063E033480078032850D100
:1013600032480078401E324951F820005B2838D1BD
:10137000002240F225512B4800F050FA2D48007809
:1013800008B3FFF7B5F92C482DA102682E4800F0EC
:10139000DFFA04232C4A02210846FFF7BBFA26484D
:1013A00000682A490860254829A10268264800F0FB
:1013B000CFFA0423244A19460220FFF7ABFA1F484C
:1013C00000682549086000201A490870174908700C
:1013D00015490870012240F22551124800F01EFA0A
:1013E0001EE000201049087010490870002405E034
:1013F00000200F4941F82400601CC4B20A2CF7DB1E
:101400000EE000200849087008490870002405E033
:101410000020074941F82400601CC4B20A2CF7DB05
:1014200070BD00000038014025000020240000208D
:101430003C0000202600002014000020180000209E
:10144000666C61673A2564003000002020000020AF
:1014500078773A25640000001C0000202DE9F04157
:101460004FF0000840F225517C4800F0ADF900280B
:1014700019D040F22551794800F031F9774800F051
:101480005FFAC6B27648007870B92C2E0CD10120D4
:1014900073490870734801780078401C714A1070D5
:1014A000714820F81160D6E06D48007801280ED10F
:1014B000122E0CD102206A4908706A48017800781F
:1014C000401C684A1070684820F81160C3E0644806
:1014D0000078022815D1634801780078401C614AE1
:1014E0001070614820F81160104600780C2801DA6D
:1014F0005B2ED8D103205A49087001205B4908703F
:10150000A9E05748007803287ED156480078401E4D
:10151000554931F810005B287ED1002240F2255158
:101520004E4800F07BF951480078002863D0002431
:101530004D48C4882402808804430CB14C480460A0
:101540000024494844892402008904430CB14848D6
:10155000446000244448C48924028089044314B1AF
:101560004348846001E04FF0010800243E48448A6B
:101570002402008A04430CB13D48C460B8F1000F56
:1015800009D03B4847680068394948600846876089
:1015900000200860C860364836A10268374800F06D
:1015A000D7F90423354A01210220FFF7B3F9304867
:1015B00033A14268314800F0CBF904232F4A0221BD
:1015C0000846FFF7A7F92A482FA182682B4800F0A8
:1015D000BFF90423294A03210220FFF79BF924487D
:1015E0002BA1C268254800F0B3F90423234A194609
:1015F0000220FFF78FF900201C4908701949087074
:1016000017490870012201E016E005E040F225517B
:10161000124800F003F91EE000201149087011493A
:101620000870002505E000200F4921F81500681C0E
:10163000C5B20A2DF7DB0EE0002009490870094900
:101640000870002505E00020074921F81500681CF6
:10165000C5B20A2DF7DBBDE8F08100000044004070
:101660002B0000202A0000203C0100202C0000203C
:101670002C010020303A25640000000030000020DA
:10168000313A256400000000323A25640000000071
:10169000333A25640000000010B540F22551094896
:1016A00000F092F868B1074800F04AF9C4B2012C82
:1016B00003D101200449087003E014B90020024955
:1016C000087010BD004800402700002001F400729F
:1016D000B2F5007F00D100BFCA430280704710B549
:1016E0000022002340F66A14A14200D100BF0A1272
:1016F00001249440A3B2DC43048010BD21B182894F
:1017000042F40052828104E082894DF6FF731A4050
:101710008281704700B587B001218803FFF74CF93B
:1017200001210420FFF748F94FF40070ADF81800CC
:1017300003208DF81A0018208DF81B0006A92048F8
:10174000FEF73CFE4FF48060ADF8180004208DF8E1
:101750001B0006A91A48FEF731FE25208DF804006B
:1017600000208DF8050002208DF8060001208DF87C
:10177000070001A8FEF77AFF4FF4E1300290002045
:10178000ADF80C00ADF80E00ADF81000ADF8140087
:101790000C20ADF8120002A90A4800F065F80122F9
:1017A00040F22551074800F039F801210548FFF7BC
:1017B000A5FF40210348FFF789FF07B000BD0000E7
:1017C000000801400038014070B5024600240023A3
:1017D0000025002040F66A16B14200D100BFC1F3D7
:1017E000421501F01F03012606FA03F3012D02D171
:1017F0009689334006E0022D02D1168A334001E07B
:10180000968A33400C12012606FA04F416883440F6
:1018100013B10CB1012000E0002070BDF0B503460B
:10182000002400260025002040F66A17B94200D1A6
:1018300000BF1846C1F3421401F01F06012707FA42
:1018400006F5012C01D10C3004E0022C01D110303E
:1018500000E014301AB107682F43076002E0076800
:10186000AF430760F0BD00002DE9F04786B00546A4
:101870000E460024A24600BFA1460027B08900B151
:1018800000BF2F462C8A4CF6FF700440F0880443BA
:101890002C82AC894EF6F3100440B088318908439D
:1018A000718908430443AC81AC8A4FF6FF40044081
:1018B000B0890443AC8201A8FFF78EF81F48874225
:1018C00002D1DDF810A001E0DDF80CA0A88900F439
:1018D000004040B10AEBCA0000EB0A103168490031
:1018E000B0FBF1F807E00AEBCA0000EB0A10316820
:1018F0008900B0FBF1F86420B8FBF0F00401200986
:10190000642101FB1089A88900F4004040B1322015
:1019100000EBC900B0FBF1F000F00700044308E061
:10192000322000EB09106421B0FBF1F000F00F0051
:1019300004432C8106B0BDE8F08700000038014068
:1019400001468888C0F30800704700BFFEE700002A
:101950000FB4084B10B504A902AA039800F01CF8B4
:10196000044602A9002000F0C1F8204610BC5DF832
:1019700014FB0000ED1A000802E008C8121F08C19D
:10198000002AFAD170477047002001E001C1121F00
:10199000002AFBD1704700002DE9FF4F89B09B461C
:1019A0000446002506E025280BD05A460B9990479F
:1019B000641C6D1C20780028F5D10DB02846BDE8C8
:1019C000F08F0027B8460122474900E0074314F88A
:1019D000013F203B02FA03F00842F7D120782E287D
:1019E00019D114F8010F47F004072A280ED06FF020
:1019F0002F022078A0F1300109290CD808EB8801CA
:101A000002EB410100EB0108641CF2E70A98641C38
:101A100050F8048B0A9020780028CED0642808D093
:101A2000692806D075281ED05A460B9990476D1C20
:101A300058E00A994FF00A0901C90A91002802DA10
:101A400040422D2102E0390504D52B218DF82010CC
:101A5000012103E0F90704D02021F7E78A4608AE08
:101A60000DE00021FAE70A994FF00A0901C90A912D
:101A7000F7E74946FEF778FB303106F8011D0028EC
:101A8000F7D1ADEB060000F12009780701D44FF043
:101A90000108C84502DDA8EB090000E000208046EF
:101AA000002706E008A85A46C05D0B9990476D1CB8
:101AB0007F1C5745F6DB04E030205A460B999047CF
:101AC0006D1CB8F10001A8F10108F5DC05E016F87D
:101AD000010B5A460B9990476D1CB9F10001A9F111
:101AE0000109F4DC641C65E7092801000A68531C3D
:101AF0000B60107070470000FEF778FD4FF4E13086
:101B000000F046F8FFF706FE4FF4E13000F092F8DF
:101B1000FEF794FDFEF73EFCFEF7F4FB00214FF6C6
:101B2000FF70FEF74DFB00214FF6FF70FEF786FBBE
:101B300040F2CF2140F2F310FFF780F9FEF7F8FDF5
:101B4000FEF7D6FD18E040F2DC500C490880091D74
:101B5000088089140A48FEF7BCFC4FF4005108487D
:101B6000FEF7B9FC4FF480410548FEF7B2FC4FF494
:101B700000410348FEF7AFFCE5E700003C040040ED
:101B8000000C014000BF411E0800FCD1704700005E
:101B900010B586B0044601214804FEF7FDFE012180
:101BA0000420FEF709FF0420ADF8140003208DF88F
:101BB000160018208DF8170005A91C48FEF7FEFB3B
:101BC0000820ADF8140004208DF8170005A9174867
:101BD000FEF7F4FB26208DF8000002208DF80100AE
:101BE0008DF8020001208DF803006846FEF73EFDE7
:101BF00001940020ADF80800ADF80A00ADF80C0023
:101C0000ADF810000C20ADF80E0001A90848FFF750
:101C10002BFE012240F225510548FFF7FFFD01216F
:101C20000348FFF76BFD06B010BD0000000801403F
:101C30000044004010B586B0044601210820FEF79C
:101C4000BBFE01218804FEF7A7FE4FF48060ADF8CB
:101C5000140003208DF8160018208DF8170005A930
:101C60001D48FEF7ABFB4FF40060ADF814000420F4
:101C70008DF8170005A91848FEF7A0FB27208DF85E
:101C8000000001208DF8010003208DF802000120E2
:101C90008DF803006846FEF7E9FC4FF4E13001904F
:101CA0000020ADF80800ADF80A00ADF80C00ADF862
:101CB00010000C20ADF80E0001A90848FFF7D4FD74
:101CC000012240F225510548FFF7A8FD01210348F4
:101CD000FFF714FD06B010BD000C014000480040A5
:101CE0000000000000000000002F000000000700BE
:101CF000070000147F147F1400242A7F2A12006238
:101D000064081323003649552250000005030000E3
:101D100000001C224100000041221C000014083E6B
:101D200008140008083E0808000000A06000000831
:101D30000808080800006060000000201008040285
:101D4000003E5149453E0000427F40000042615143
:101D50004946002141454B31001814127F100027DD
:101D600045454539003C4A494930000171090503A0
:101D700000364949493600064949291E00003636D1
:101D80000000000056360000000814224100001434
:101D90001414141400004122140800020151090611
:101DA00000324959513E007C1211127C007F494992
:101DB0004936003E41414122007F4141221C007FC3
:101DC00049494941007F09090901003E4149497AD1
:101DD000007F0808087F0000417F4100002040414B
:101DE0003F01007F08142241007F40404040007FB7
:101DF000020C027F007F0408107F003E4141413EFB
:101E0000007F09090906003E4151215E007F091942
:101E100029460046494949310001017F0101003F3F
:101E20004040403F001F2040201F003F4038403FBF
:101E30000063140814630007087008070061514923
:101E4000454300007F41410000552A552A550000B6
:101E500041417F0000040201020400404040404034
:101E6000000001020400002054545478007F4844CC
:101E7000443800384444442000384444487F003803
:101E80005454541800087E0901020018A4A4A47C2C
:101E9000007F080404780000447D400000408084F6
:101EA0007D00007F102844000000417F4000007C3E
:101EB00004180478007C080404780038444444384A
:101EC00000FC242424180018242418FC007C080496
:101ED000040800485454542000043F444020003C6F
:101EE0004040207C001C2040201C003C4030403CF6
:101EF000004428102844001CA0A0A07C0044645486
:101F00004C441414141414140000000000000000C9
:101F10000000000000000000000000F800000000C9
:101F2000000000333000000000100C06100C06000A
:101F3000000000000000000040C07840C078400071
:101F4000043F04043F040400007088FC08300000D3
:101F5000001820FF211E0000F008F000E01800002B
:101F600000211C031E211E0000F0088870000000E4
:101F70001E2123241927211010160E000000000036
:101F80000000000000000000000000E01804020053
:101F9000000000071820400000020418E0000000C4
:101FA0000040201807000000404080F080404000C2
:101FB0000202010F01020200000000F00000000018
:101FC0000101011F010101000000000000000000EC
:101FD00080B0700000000000000000000000000061
:101FE00000010101010101010000000000000000EA
:101FF0000030300000000000000000008060180485
:10200000006018060100000000E010080810E00061
:10201000000F102020100F00001010F8000000002A
:102020000020203F20200000007008080888700071
:1020300000302824222130000030088888483000F1
:102040000018202020110E000000C02010F8000011
:1020500000070424243F240000F8088888080800AA
:102060000019212020110E0000E0108888180000BF
:10207000000F112020110E0000380808C838080091
:102080000000003F00000000007088080888700011
:10209000001C222121221C0000E010080810E00092
:1020A0000000312222110F00000000C0C00000001B
:1020B0000000003030000000000000800000000040
:1020C0000000806000000000000080402010080038
:1020D0000001020408102000404040404040400001
:1020E00004040404040404000008102040800000DC
:1020F0000020100804020100007048080808F000E1
:102100000000003036010000C030C828E810E000B0
:102110000718272423140B000000C038E00000003B
:10212000203C23020227382008F8888888700000A5
:10213000203F202020110E00C03008080808380079
:10214000071820202010080008F808080810E000F0
:10215000203F202020100F0008F88888E808100091
:10216000203F20202320180008F88888E808100065
:10217000203F200003000000C0300808083800009D
:1021800007182020221E020008F808000008F8089E
:10219000203F210101213F20000808F80808000025
:1021A0000020203F2020000000000808F808080058
:1021B000C08080807F00000008F888C028180800D0
:1021C000203F20012638200008F808000000000009
:1021D000203F20202020300008F8F800F8F8080000
:1021E000203F003F003F200008F830C00008F808FA
:1021F000203F200007183F00E01008080810E0000A
:102200000F10202020100F0008F808080808F00020
:10221000203F210101010000E01008080810E00043
:102220000F18242438504F0008F8888888887000D8
:10223000203F2000030C3020007088080808380078
:102240000038202121221C00180808F8080818006E
:102250000000203F2000000008F808000008F808EF
:10226000001F202020201F000878880000C83808A0
:10227000000007380E010000F80800F80008F80018
:10228000033C0700073C03000818688080681808B2
:1022900020302C03032C30200838C800C838080030
:1022A0000000203F2000000010080808C83808007F
:1022B0002038262120201800000000FE0202020023
:1022C0000000007F40404000000C30C000000000D3
:1022D000000000010638C00000020202FE000000FB
:1022E000004040407F0000000000040202020400A1
:1022F00000000000000000000000000000000000DE
:1023000080808080808080800002020400000000C5
:1023100000000000000000000000808080800000BD
:102320000019242222223F2008F8008080000000AB
:10233000003F112020110E0000000080808000006E
:10234000000E112020201100000000808088F8007D
:10235000000E112020103F200000808080800000AF
:10236000001F222222221300008080F08888881813
:102370000020203F2020000000008080808080001E
:10238000006B94949493600008F8008080800000B3
:10239000203F210000203F2000809898000000008E
:1023A0000020203F202000000000008098980000BE
:1023B00000C08080807F000008F8000080808000DE
:1023C000203F24022D302000000808F80000000003
:1023D0000020203F202000008080808080808000BE
:1023E000203F20003F20003F808000808080000050
:1023F000203F210000203F200000808080800000DE
:10240000001F202020201F0080800080800000000E
:1024100080FFA12020110E0000000080808080003D
:10242000000E112020A0FF8080808000808080002E
:1024300020203F212000010000008080808080005B
:102440000033242424241900008080E080800000D0
:102450000000001F2020000080800000008080001D
:10246000001F202020103F2080808000008080807E
:1024700000010E300806010080800080008080800E
:102480000F300C030C300F00008080008080800033
:102490000020312E0E31200080808000008080805E
:1024A00080818E701806010000808080808080000E
:1024B0000021302C2221300000000000807C02022C
:1024C00000000000003F404000000000FF0000004E
:1024D00000000000FF0000000002027C80000000FD
:1024E0000040403F00000000000601010202040419
:1024F0000000000000000000182500080000002077
:10250000300000007819000848250008300000203D
:1025100028050000881900080000000001020304DB
:10252000010203040607080902040608000000006F
:10253000000000000000000000000000000000009B
:08254000000000000000000093
:0400000508000131BD
:00000001FF
